S01E0000546865726D6973746F725F4C4D33355F4472697665722E73726563AA
S11300000C942A000C9427040C9454040C9481043A
S11300100C9447000C9447000C9447000C94470040
S11300200C9447000C9447000C9447000C94470030
S11300300C9447000C9447000C9447000C94470020
S11300400C9416030C9447000C9447000C9447003E
S11300500C94470011241FBECFE5D8E0DEBFCDBF0E
S113006010E0A0E6B0E0EAE9F2E102C005900D92EA
S1130070A837B107D9F720E0A8E7B0E001C01D9286
S1130080AF38B207E1F70E9483020C944B090C9439
S1130090000040E067E080E00E94B50383EC99E053
S11300A00197F1F700C0000041E067E080E00E94A2
S11300B0B5030895CF93DF93C82F40E066E080E056
S11300C00E94B50381116EC041E067E00E94B50350
S11300D0811168C0DC2FD07F4D2F441F4427441F5B
S11300E067E081E00E94B50381115CC0D6FB442720
S11300F040F966E081E00E94B503811153C0D5FB4D
S1130100442740F965E081E00E94B50381114AC0AB
S1130110D4FB442740F964E081E00E94B5038111D7
S113012041C00E94490089EF90E00197F1F700C0B7
S11301300000C295C07F4C2F441F4427441F67E032
S113014081E00E94B50381112DC0C6FB442740F90C
S113015066E081E00E94B503811124C0C5FB4427F9
S113016040F965E081E00E94B50381111BC0C4FB26
S1130170442740F964E081E00E94B503811112C074
S113018089EF90E00197F1F700C0000040E067E0DC
S113019080E00E94B50389EF90E00197F1F700C079
S11301A0000080E0DF91CF910895CF93C82F40E005
S11301B065E080E00E94B503811103C08C2F0E948A
S11301C05A00CF91089541E065E080E00E94430326
S11301D0811161C041E066E00E94430381115BC06C
S11301E041E067E00E944303811155C041E067E0AC
S11301F081E00E94430381114EC041E066E081E04A
S11302000E944303811147C041E065E081E00E9400
S11302104303811140C041E064E081E00E94430354
S1130220811139C08DE292E20197F1F700C000001C
S113023083E30E94D50082E30E94D50088E20E94F5
S1130240D500811128C089EF90E00197F1F700C033
S113025000008FE00E94D50081111DC089EF90E05D
S11302600197F1F700C0000081E00E94D5008111E0
S113027012C083EF91E00197F1F700C0000086E01F
S11302800E94D500811107C089EF90E00197F1F732
S113029000C0000080E00895CF93C82F40E065E0DF
S11302A080E00E94B503811103C08C2F0E945A0084
S11302B0CF910895CF93DF93603140F5C62F81111C
S11302C010C0D0E8D60F40E065E00E94B50381116C
S11302D003C08D2F0E945A0081111BC0C093780067
S11302E018C08130A9F4D0ECD60F40E065E080E07E
S11302F00E94B503811103C08D2F0E945A00811101
S113030008C060E16C0F6093780003C080E001C016
S113031080E0DF91CF91089580917800803151F48D
S113032060E081E00E945A01809178008F5F8093A1
S113033078000895803289F440E065E080E00E940E
S1130340B503811103C081E00E945A0060E080E09F
S11303500E945A011092780008958F5F809378006C
S11303600895CF93C82F0E948C0141E065E080E09E
S11303700E94B503811103C08C2F0E945A00CF91B3
S11303800895CF93DF93EC01892B39F482E008C000
S11303900E94B101811104C0219688818111F8CF96
S11303A0DF91CF9108951F93CF93DF93CDB7DEB73D
S11303B060970FB6F894DEBF0FBECDBF9F938F93A7
S11303C07F936F9382E690E09F938F93CE01019683
S11303D09F938F930E9461060FB6F894DEBF0FBE01
S11303E0CDBF10E081E004C0892F0E94B1011F5FDE
S11303F0E1E0F0E0EC0FFD1FE10FF11D90819111A0
S1130400F3CF60960FB6F894DEBF0FBECDBFDF9179
S1130410CF911F9108950E94F70220917D003091A1
S11304207E00A8E8B3E10E9452060E94570520E02E
S113043030E040E85AE30E94E50520E030E040E285
S113044051E40E94B6046093790070937A0080931B
S11304507B0090937C000895EF92FF921F93CF93BB
S1130460DF937C010E94C3020E94F2026DE770E0F8
S11304708BE092E00E9408030E94AE0410E01BC0CF
S1130480C12FD0E0CC0FDD1FCE0DDF1D688162339C
S113049039F040E080E00E94430388810E94EA0230
S11304A06981623339F040E080E00E94430389812E
S11304B00E94EA021F5F112319F30E94E00281E007
S11304C0DF91CF911F91FF90EF9008951F93CF93E9
S11304D0DF936115710589F0EB010E94E502182F85
S11304E06091790070917A0080917B0090917C00FA
S11304F00E9428057983688301C012E0812FDF916F
S1130500CF911F910895CF93DF9300D0CDB7DEB77D
S11305100E94E3008CE00E944C011A82198280E65A
S113052090E00E942C0285E690E00E94C10100E068
S113053010E089819A810817190739F4BE016F5FA9
S11305407F4F80E00E946602F4CF6DE080E00E945D
S11305505A0183E790E00E94C1016DE080E00E94AF
S11305605A0169817A8180E090E00E94D3012FE9E9
S113057086E891E0215080409040E1F700C00000FF
S113058009811A81D6CF87B18F7387B987B18F7BE1
S113059087B987B18F7787B987B18F7D87B987B1DD
S11305A08F7D87B986B1887F86B986B1816086B927
S11305B086B1826086B986B18B7F86B981E0089561
S11305C086B1806886B981E0089586B1806486B971
S11305D081E0089597B1907E97B997B1892B87B937
S11305E081E0089586B1886086B981E00895FC01B0
S11305F024B1422F50E05183408395B1292F30E03C
S1130600322F2227242B352B3183208381E0089538
S1130610009751F090938200809381007093800042
S113062060937F0081E0089582E008951F920F9205
S11306300FB60F9211242F933F934F935F936F93B1
S11306407F938F939F93AF93BF93EF93FF93E09127
S11306508100F0918200309729F080917F00909181
S113066080000995FF91EF91BF91AF919F918F9178
S11306707F916F915F914F913F912F910F900FBE9A
S11306800F901F901895843008F067C0683008F008
S113069066C0423008F065C08130E9F030F0823045
S11306A081F1833009F443C05EC081E090E0062EFE
S11306B002C0880F991F0A94E2F780952AB3282371
S11306C0842F90E002C0880F991F6A95E2F7822B6D
S11306D08ABB80E0089521E030E0062E02C0220F9C
S11306E0331F0A94E2F7209587B32823842F90E0E0
S11306F002C0880F991F6A95E2F7822B87BB80E0BE
S1130700089521E030E0062E02C0220F331F0A9420
S1130710E2F7209584B32823842F90E002C0880F49
S1130720991F6A95E2F7822B84BB80E0089521E04B
S113073030E0062E02C0220F331F0A94E2F7209500
S113074081B32823842F90E002C0880F991F6A95F3
S1130750E2F7822B81BB80E0089583E0089583E073
S1130760089583E0089580E00895843008F067C018
S1130770683008F066C0423008F065C08130E9F0A6
S113078030F0823081F1833009F443C05EC081E0EF
S113079090E0062E02C0880F991F0A94E2F7809514
S11307A02BB32823842F90E002C0880F991F6A95E9
S11307B0E2F7822B8BBB80E0089521E030E0062E27
S11307C002C0220F331F0A94E2F7209588B328232E
S11307D0842F90E002C0880F991F6A95E2F7822B5C
S11307E088BB80E0089521E030E0062E02C0220F8D
S11307F0331F0A94E2F7209585B32823842F90E0D1
S113080002C0880F991F6A95E2F7822B85BB80E0AE
S1130810089521E030E0062E02C0220F331F0A940F
S1130820E2F7209582B32823842F90E002C0880F3A
S1130830991F6A95E2F7822B82BB80E0089583E0DA
S1130840089583E0089583E0089580E008951F9259
S11308500F920FB60F9211242F933F934F935F93F0
S11308606F937F938F939F93AF93BF93EF93FF9374
S1130870E0918900F0918A00309729F080918300FB
S1130880909184000995FF91EF91BF91AF919F9151
S11308908F917F916F915F914F913F912F910F9025
S11308A00FBE0F901F9018951F920F920FB60F92C4
S11308B011242F933F934F935F936F937F938F9361
S11308C09F93AF93BF93EF93FF93E0918B00F091CD
S11308D08C00309729F080918500909186000995CD
S11308E0FF91EF91BF91AF919F918F917F916F9104
S11308F05F914F913F912F910F900FBE0F901F90DA
S113090018951F920F920FB60F9211242F933F93B5
S11309104F935F936F937F938F939F93AF93BF9303
S1130920EF93FF93E0918D00F0918E00309729F0C2
S113093080918700909188000995FF91EF91BF9174
S1130940AF919F918F917F916F915F914F913F9163
S11309502F910F900FBE0F901F9018958FB78F7720
S11309608FBF8FB780688FBF80E008950E94CA044C
S11309700C94AB050E94A40558F00E949D0540F01C
S113098029F45F3F29F00C94940551110C94DF0570
S11309900C949A050E94BC0568F39923B1F355237E
S11309A091F3951B550BBB27AA276217730784077E
S11309B038F09F5F5F4F220F331F441FAA1FA9F314
S11309C035D00E2E3AF0E0E832D091505040E69502
S11309D0001CCAF72BD0FE2F29D0660F771F881F63
S11309E0BB1F261737074807AB07B0E809F0BB0B56
S11309F0802DBF01FF2793585F4F3AF09E3F51056A
S1130A0078F00C9494050C94DF055F3FE4F3983E72
S1130A10D4F3869577956795B795F7959F5FC9F752
S1130A20880F911D9695879597F90895E1E0660FD3
S1130A30771F881FBB1F621773078407BA0720F04C
S1130A40621B730B840BBA0BEE1F88F7E0950895B5
S1130A500E94C40588F09F5798F0B92F9927B75181
S1130A60B0F0E1F0660F771F881F991F1AF0BA954E
S1130A70C9F714C0B13091F00E94DE05B1E00895C9
S1130A800C94DE05672F782F8827B85F39F0B93FBB
S1130A90CCF3869577956795B395D9F73EF4909501
S1130AA08095709561957F4F8F4F9F4F0895E8947F
S1130AB009C097FB3EF490958095709561957F4FA2
S1130AC08F4F9F4F9923A9F0F92F96E9BB27939550
S1130AD0F695879577956795B795F111F8CFFAF460
S1130AE0BB0F11F460FF1BC06F5F7F4F8F4F9F4F91
S1130AF016C0882311F096E911C0772321F09EE8EF
S1130B00872F762F05C0662371F096E8862F70E054
S1130B1060E02AF09A95660F771F881FDAF7880F2E
S1130B209695879597F9089597F99F6780E870E0FF
S1130B3060E008959FEF80EC089500240A9416164F
S1130B40170618060906089500240A9412161306B7
S1130B50140605060895092E0394000C11F4882345
S1130B6052F0BB0F40F4BF2B11F460FF04C06F5F61
S1130B707F4F8F4F9F4F089557FD9058440F551F37
S1130B8059F05F3F71F04795880F97FB991F61F00B
S1130B909F3F79F087950895121613061406551F82
S1130BA0F2CF4695F1DF08C0161617061806991FEE
S1130BB0F1CF86957105610508940895E894BB27E3
S1130BC066277727CB0197F908950E94F8050C94BE
S1130BD0AB050E949D0538F00E94A40520F09523E2
S1130BE011F00C9494050C949A0511240C94DF05CF
S1130BF00E94BC0570F3959FC1F3950F50E0551FFB
S1130C00629FF001729FBB27F00DB11D639FAA275D
S1130C10F00DB11DAA1F649F6627B00DA11D661FAC
S1130C20829F2227B00DA11D621F739FB00DA11DCD
S1130C30621F839FA00D611D221F749F3327A00D87
S1130C40611D231F849F600D211D822F762F6A2F23
S1130C5011249F5750409AF0F1F088234AF0EE0F88
S1130C60FF1FBB1F661F771F881F91505040A9F7B5
S1130C709E3F510580F00C9494050C94DF055F3F72
S1130C80E4F3983ED4F3869577956795B795F795F1
S1130C90E7959F5FC1F7FE2B880F911D9695879569
S1130CA097F90895A29FB001B39FC001A39F700D4F
S1130CB0811D1124911DB29F700D811D1124911D60
S1130CC00895AEE0B0E0E7E6F6E00C9422090D8961
S1130CD01E8986E08C831A8309838FEF9FE79E83A6
S1130CE08D83AE01475E5F4F6F89788DCE0101968B
S1130CF00E948306EF81F885E00FF11F10822E9683
S1130D00E4E00C943E09ABE0B0E0E9E8F6E00C94D2
S1130D1014096C017B018A01FC011782168283810C
S1130D2081FFCCC1CE0101963C01F6019381F7010C
S1130D3093FD859193FF81917F01882309F4BAC1C2
S1130D40853239F493FD859193FF81917F0185323A
S1130D5029F4B60190E00E947A08E7CF912C212C67
S1130D60312CFFE1F315D8F08B3279F038F480326E
S1130D7079F08332A1F4232D20611DC08D3261F0FE
S1130D80803369F4232D216016C0832D8260382EB0
S1130D90E32DE4603E2E2AC0F32DF8601DC037FC1D
S1130DA02DC020ED280F2A3040F08E32B9F436FCE5
S1130DB081C1232D2064322E19C036FE06C08AE07C
S1130DC0989E200D1124922E11C0EAE02E9E200D33
S1130DD01124222EF32DF0623F2E08C08C3621F40C
S1130DE0832D8068382E02C0883641F4F70193FDC4
S1130DF0859193FF81917F018111B3CF982F9F7DBE
S1130E009554933028F40C5F1F4F9FE399830DC0D2
S1130E10833631F0833771F0833509F059C021C02E
S1130E20F801808189830E5F1F4F88248394912C5D
S1130E30530113C02801F2E04F0E511CF801A080A9
S1130E40B18036FE03C0692D70E002C06FEF7FEF02
S1130E50C5010E946F084C018201F32DFF773F2EDC
S1130E6016C0280122E0420E511CF801A080B18076
S1130E7036FE03C0692D70E002C06FEF7FEFC5013D
S1130E800E9464084C01F32DF0683F2E820133FC6C
S1130E901BC0822D90E088169906B0F4B60180E25A
S1130EA090E00E947A082A94F4CFF50137FC8591EA
S1130EB037FE81915F01B60190E00E947A0821100B
S1130EC02A9421E0821A91088114910471F7E8C0F0
S1130ED0843611F0893641F5F80137FE07C0608188
S1130EE07181828193810C5F1F4F08C06081718181
S1130EF0072E000C880B990B0E5F1F4FF32DFF7606
S1130F003F2E97FF09C090958095709561957F4F0E
S1130F108F4F9F4FF0683F2E2AE030E0A3010E94DC
S1130F20B608882E861845C0853731F4232D2F7EC8
S1130F30B22E2AE030E025C0932D997FB92E8F364A
S1130F40C1F018F4883579F0B5C0803719F08837C6
S1130F5021F0B0C0E92FE061BE2EB4FE0DC0FB2D20
S1130F60F460BF2E09C034FE0AC0292F2660B22EB9
S1130F7006C028E030E005C020E130E002C020E1F6
S1130F8032E0F801B7FE07C06081718182819381EC
S1130F900C5F1F4F06C06081718180E090E00E5F9E
S1130FA01F4FA3010E94B608882E8618FB2DFF77D9
S1130FB03F2E36FE0DC0232D2E7FA22E891458F409
S1130FC034FE0BC032FC09C0832D8E7EA82E05C0D2
S1130FD0B82CA32C03C0B82C01C0B92CA4FE0FC09C
S1130FE0FE01E80DF11D8081803321F49A2D997E54
S1130FF0A92E09C0A2FE06C0B394B39404C08A2DDE
S1131000867809F0B394A3FC11C0A0FE06C0B21404
S113101088F4280C922C9B180EC0B21460F4B6010C
S113102080E290E00E947A08B394F7CFB21418F4E7
S11310302B1802C0982C212CA4FE10C0B60180E30A
S113104090E00E947A08A2FE17C0A1FC03C088E7C2
S113105090E002C088E590E0B6010CC08A2D867845
S113106059F0A1FE02C08BE201C080E2A7FC8DE230
S1131070B60190E00E947A08891438F4B60180E33E
S113108090E00E947A089A94F7CF8A94F301E80DCD
S1131090F11D8081B60190E00E947A088110F5CF9D
S11310A0222009F442CEB60180E290E00E947A0840
S11310B02A94F6CFF6018681978102C08FEF9FEFC5
S11310C02B96E2E10C943009FC01059061507040CC
S11310D00110D8F7809590958E0F9F1F0895FC01FD
S11310E06150704001900110D8F7809590958E0F53
S11310F09F1F08950F931F93CF93DF93FB012381C9
S113110021FD03C08FEF9FEF2CC022FF16C0468144
S11311105781248135814217530744F4A081B1815A
S11311209D012F5F3F4F318320838C93268137812C
S11311302F5F3F4F3783268314C08B01EC01FB01E3
S11311400084F185E02D0995892BE1F6D8011696E6
S11311508D919C911797019617969C938E93169751
S1131160CE01DF91CF911F910F910895FA01AA2723
S1131170283051F1203181F1E8946F936E7F6E5FD6
S11311807F4F8F4F9F4FAF4FB1E03ED0B4E03CD084
S1131190670F781F891F9A1FA11D680F791F8A1F67
S11311A0911DA11D6A0F711D811D911DA11D20D0CE
S11311B009F468943F912AE0269F11243019305D88
S11311C03193DEF6CF010895462F4770405D419379
S11311D0B3E00FD0C9F7F6CF462F4F70405D4A33C6
S11311E018F0495D31FD4052419302D0A9F7EACF8E
S11311F0B4E0A6959795879577956795BA95C9F7BD
S113120000976105710508959B01AC010A2E0694AF
S11312105795479537952795BA95C9F7620F731F68
S1131220841F951FA01D08952F923F924F925F92A5
S11312306F927F928F929F92AF92BF92CF92DF92E2
S1131240EF92FF920F931F93CF93DF93CDB7DEB747
S1131250CA1BDB0B0FB6F894DEBF0FBECDBF0994DB
S11312602A88398848885F846E847D848C849B8432
S1131270AA84B984C884DF80EE80FD800C811B8140
S1131280AA81B981CE0FD11D0FB6F894DEBF0FBE6F
S10D1290CDBFED010895F894FFCFDF
S113129A003225640054656D7065726174757265F7
S10B12AA3A200020202000007E
S9030000FC
