S00B00005350492E737265632D
S11300000C942A000C945E010C948B010C94B8019E
S11300100C9447000C9447000C9447000C94470040
S11300200C9447000C9447000C9447000C94470030
S11300300C940C020C9447000C9447000C94470059
S11300400C9447000C9447000C9447000C94470010
S11300500C94470011241FBECFE5D8E0DEBFCDBF0E
S113006010E0A0E6B0E0E6E7F4E002C005900D92EF
S1130070A036B107D9F720E0A0E6B0E001C01D9298
S1130080A237B207E1F70E9449000C9439020C949C
S1130090000041E064E081E00E947A0041E065E014
S11300A081E00E947A0040E066E081E00E947A00EC
S11300B041E067E081E00E947A0041E064E081E091
S11300C00E94EC0081E4809371000E94E50140E00D
S11300D064E081E00E94EC00C1E409C060E770E0E4
S11300E08C2F0E94FF01809170008CB9CF5FC634C1
S11300F0A8F3F2CF843008F067C0683008F066C017
S1130100423008F065C08130E9F030F0823081F18E
S1130110833009F443C05EC081E090E0062E02C043
S1130120880F991F0A94E2F780952AB32823842F15
S113013090E002C0880F991F6A95E2F7822B8ABB70
S113014080E0089521E030E0062E02C0220F331F24
S11301500A94E2F7209587B32823842F90E002C005
S1130160880F991F6A95E2F7822B87BB80E0089578
S113017021E030E0062E02C0220F331F0A94E2F77A
S1130180209584B32823842F90E002C0880F991F00
S11301906A95E2F7822B84BB80E0089521E030E089
S11301A0062E02C0220F331F0A94E2F7209581B372
S11301B02823842F90E002C0880F991F6A95E2F7E4
S11301C0822B81BB80E0089583E0089583E0089545
S11301D083E0089580E00895843008F067C06830B3
S11301E008F066C0423008F065C08130E9F030F0B4
S11301F0823081F1833009F443C05EC081E090E035
S1130200062E02C0880F991F0A94E2F780952BB33B
S11302102823842F90E002C0880F991F6A95E2F783
S1130220822B8BBB80E0089521E030E0062E02C0D3
S1130230220F331F0A94E2F7209588B32823842FD2
S113024090E002C0880F991F6A95E2F7822B88BB61
S113025080E0089521E030E0062E02C0220F331F13
S11302600A94E2F7209585B32823842F90E002C0F6
S1130270880F991F6A95E2F7822B85BB80E0089569
S113028021E030E0062E02C0220F331F0A94E2F769
S1130290209582B32823842F90E002C0880F991FF1
S11302A06A95E2F7822B82BB80E0089583E008958B
S11302B083E0089583E0089580E008951F920F92EB
S11302C00FB60F9211242F933F934F935F936F9325
S11302D07F938F939F93AF93BF93EF93FF93E0919B
S11302E06600F0916700309729F08091600090914A
S11302F061000995FF91EF91BF91AF919F918F910B
S11303007F916F915F914F913F912F910F900FBE0D
S11303100F901F9018951F920F920FB60F921124F1
S11303202F933F934F935F936F937F938F939F93F9
S1130330AF93BF93EF93FF93E0916800F09169004E
S1130340309729F080916200909163000995FF91A4
S1130350EF91BF91AF919F918F917F916F915F9139
S11303604F913F912F910F900FBE0F901F901895B2
S11303701F920F920FB60F9211242F933F934F9316
S11303805F936F937F938F939F93AF93BF93EF93F9
S1130390FF93E0916A00F0916B00309729F080910F
S11303A06400909165000995FF91EF91BF91AF9121
S11303B09F918F917F916F915F914F913F912F9179
S11303C00F900FBE0F901F9018958DB180648DB95A
S11303D08DB18F7D8DB98DB180618DB98DB1877FE0
S11303E08DB98DB18B7F8DB98EB18E7F8EB98DB164
S11303F081608DB98DB182608DB980E008956115F9
S1130400710541F08FB9779BFECF8FB1FB018083DB
S113041080E0089582E008951F920F920FB60F9224
S113042011242F933F934F935F936F937F938F93F5
S11304309F93AF93BF93EF93FF93E0916E00F0917E
S11304406F00309729F080916C0090916D000995B0
S1130450FF91EF91BF91AF919F918F917F916F9198
S11304605F914F913F912F910F900FBE0F901F906E
S10904701895F894FFCF7B
S9030000FC
