S01200004144435F4472697665722E737265637F
S11300000C9432000C946E050C949B050C94C8055A
S11300100C944F000C944F000C944F000C944F0020
S11300200C944F000C944F000C944F000C944F0010
S11300300C944F000C944F000C944F000C944F0000
S11300400C94F9020C944F000C944F000C944F0044
S11300500C944F008E029902A402AF02BA02C502A8
S1130060D002DB0211241FBECFE5D8E0DEBFCDBF36
S113007010E0A0E6B0E0EEEDF1E102C005900D92D3
S1130080AC36B107D9F720E0ACE6B0E001C01D9270
S1130090AD37B207E1F70E94F4010C94ED080C941B
S11300A00000CF93C82F40E066E080E00E94CC03BC
S11300B0811160C041E067E00E94CC0381115AC005
S11300C04C2F441F4427441F67E081E00E94CC0367
S11300D0811150C0C6FB442740F966E081E00E94CC
S11300E0CC03811147C0C5FB442740F965E081E09A
S11300F00E94CC0381113EC0C4FB442740F964E054
S113010081E00E94CC03811135C0C3FB442740F930
S113011063E081E00E94CC0381112CC0C2FB442720
S113012040F962E081E00E94CC03811123C0C1FB4D
S1130130442740F961E081E00E94CC0381111AC098
S11301404C2F417060E081E00E94CC03811112C009
S113015089EF90E00197F1F700C0000040E067E00C
S113016080E00E94CC0389EF90E00197F1F700C092
S1130170000080E0CF910895CF93C82F40E065E060
S113018080E00E94CC03811103C08C2F0E94510097
S1130190CF91089541E065E080E00E945A03811107
S11301A077C041E066E00E945A03811171C041E0CA
S11301B067E00E945A0381116BC041E067E081E06F
S11301C00E945A03811164C041E066E081E00E940C
S11301D05A0381115DC041E065E081E00E945A0349
S11301E0811156C041E064E081E00E945A0381110C
S11301F04FC08DE292E20197F1F700C0000041E0A8
S113020063E081E00E945A03811142C041E062E050
S113021081E00E945A0381113BC041E061E081E02A
S11302200E945A03811134C041E060E081E00E94E1
S11302305A0381112DC088E30E94BC00811128C09B
S113024089EF90E00197F1F700C000008FE00E9471
S1130250BC0081111DC089EF90E00197F1F700C047
S1130260000081E00E94BC00811112C083EF91E084
S11302700197F1F700C0000086E00E94BC008111E4
S113028007C089EF90E00197F1F700C0000080E01B
S11302900895CF93DF93603148F5C62F813089F4F8
S11302A0D0E8D60F40E065E080E00E94CC038111E5
S11302B003C08D2F0E94510081111BC0C0936C009C
S11302C018C08230A9F4D0ECD60F40E065E080E09D
S11302D00E94CC03811103C08D2F0E945100811113
S11302E008C060E16C0F60936C0003C080E001C043
S11302F080E0DF91CF91089580916C00803151F4BA
S113030060E082E00E94490180916C008F5F8093DD
S11303106C000895803289F440E065E080E00E943A
S1130320CC03811103C081E00E94510060E081E0B0
S11303300E94490110926C0008958F5F80936C00B5
S11303400895CF93C82F0E947C0141E065E080E0CE
S11303500E94CC03811103C08C2F0E945100CF91C5
S113036008951F93CF93DF93CDB7DEB760970FB691
S1130370F894DEBF0FBECDBF9F938F9389E690E0C4
S11303809F938F93CE0101969F938F930E940306B0
S11303900F900F900F900F900F900F9010E081E04E
S11303A004C0892F0E94A1011F5FE1E0F0E0EC0F7F
S11303B0FD1FE10FF11D90819111F3CF60960FB6EF
S11303C0F894DEBF0FBECDBFDF91CF911F9108958A
S11303D0CF93DF93EC010E946B02888199810E9484
S11303E0B101DF91CF910895CF93DF9300D0CDB7C2
S11303F0DEB71A82198240E060E080E00E945A036E
S113040040E062E083E00E945A0341E062E083E05E
S11304100E94CC0380E690E00E943E0480E00E94AB
S11304204A0562E080E00E94CE040E94370280E028
S11304300E945E0282E00E947C020E946602BE016B
S11304406F5F7F4F88EE91E00E94EB020E9454029E
S11304500E9459020E94CA000E94F5056FEF82E0D3
S11304600E942603698182E00E944003FBCF87B18A
S11304708F7387B987B18F7B87B987B18F7787B936
S113048087B18F7D87B987B18F7D87B986B1887F22
S113049086B986B1816086B986B1826086B986B133
S11304A08B7F86B981E0089586B1806886B981E042
S11304B0089586B1806486B981E0089597B1907EED
S11304C097B997B1892B87B981E0089586B188607F
S11304D086B981E00895FC0124B1422F50E0518394
S11304E0408395B1292F30E0322F2227242B352B3E
S11304F03183208381E00895E82F86B18F7D86B90A
S113050080B78F7180BF8E2F90E08830910508F0FE
S11305105DC0FC01E65DFF4F0C94FD0580B78F7D47
S113052080BF80B78F7B80BF80B78F7780BF81E02B
S11305304EC080B7806280BF80B78F7B80BF80B79A
S11305408F7780BF81E043C080B78F7D80BF80B745
S1130550806480BF80B78F7780BF81E038C080B768
S1130560806280BF80B7806480BF80B78F7780BF90
S113057081E02DC080B78F7D80BF80B78F7B80BF27
S113058080B7806880BF81E022C080B7806280BF6E
S113059080B78F7B80BF80B7806880BF81E017C041
S11305A080B78F7D80BF80B7806480BF80B780684C
S11305B080BF81E00CC080B7806280BF80B7806458
S11305C080BF80B7806880BF81E001C083E096B1BE
S11305D0906296B90895009751F0909370008093BB
S11305E06F0070936E0060936D0081E0089582E067
S11305F008951F920F920FB60F9211242F933F93D9
S11306004F935F936F937F938F939F93AF93BF9316
S1130610EF93FF93E0916F00F0917000309729F011
S113062080916D0090916E000995FF91EF91BF91BB
S1130630AF919F918F917F916F915F914F913F9176
S11306402F910F900FBE0F901F9018958430A0F437
S1130650813049F028F0823049F0833051F00EC0E7
S11306606ABB80E0089567BB80E0089564BB80E0C6
S1130670089561BB80E0089583E0089580E00895C3
S11306808430A0F4813049F028F0823049F083307E
S113069051F00EC06BBB80E0089568BB80E0089504
S11306A065BB80E0089562BB80E0089583E008950F
S11306B080E00895843008F067C0683008F066C0B0
S11306C0423008F065C08130E9F030F0823081F1C9
S11306D0833009F443C05EC081E090E0062E02C07E
S11306E0880F991F0A94E2F780952AB32823842F50
S11306F090E002C0880F991F6A95E2F7822B8ABBAB
S113070080E0089521E030E0062E02C0220F331F5E
S11307100A94E2F7209587B32823842F90E002C03F
S1130720880F991F6A95E2F7822B87BB80E00895B2
S113073021E030E0062E02C0220F331F0A94E2F7B4
S1130740209584B32823842F90E002C0880F991F3A
S11307506A95E2F7822B84BB80E0089521E030E0C3
S1130760062E02C0220F331F0A94E2F7209581B3AC
S11307702823842F90E002C0880F991F6A95E2F71E
S1130780822B81BB80E0089583E0089583E008957F
S113079083E0089580E00895843008F067C06830ED
S11307A008F066C0423008F065C08130E9F030F0EE
S11307B0823081F1833009F443C05EC081E090E06F
S11307C0062E02C0880F991F0A94E2F780952BB376
S11307D02823842F90E002C0880F991F6A95E2F7BE
S11307E0822B8BBB80E0089521E030E0062E02C00E
S11307F0220F331F0A94E2F7209588B32823842F0D
S113080090E002C0880F991F6A95E2F7822B88BB9B
S113081080E0089521E030E0062E02C0220F331F4D
S11308200A94E2F7209585B32823842F90E002C030
S1130830880F991F6A95E2F7822B85BB80E00895A3
S113084021E030E0062E02C0220F331F0A94E2F7A3
S1130850209582B32823842F90E002C0880F991F2B
S11308606A95E2F7822B82BB80E0089583E00895C5
S113087083E0089583E0089580E00895AC01892B16
S113088009F086C082E00895E92FF0E09F01220F6D
S1130890331FE20FF31FE40FF51F2081213081F194
S11308A020F0223009F457C06AC0218121116EC0A2
S11308B025B72C7F25BF2281213069F028F0223012
S11308C089F02330B1F05DC025B72E7F25BF25B751
S11308D02D7F25BF5BC025B7216025BF25B72D7FA0
S11308E025BF54C025B72E7F25BF25B7226025BF5D
S11308F04DC025B7216025BF25B7226025BF46C05E
S11309002181211143C025B7237F25BF22812130B6
S113091069F028F0223089F02330B1F034C025B7D3
S11309202B7F25BF25B7277F25BF30C025B724607F
S113093025BF25B7277F25BF29C025B72B7F25BF16
S113094025B7286025BF22C025B7246025BF25B759
S1130950286025BF1BC02181211118C024B72F7B1B
S113096024BF2281223019F0233029F00EC024B78D
S11309702F7B24BF0BC024B7206424BF07C083E0AF
S113098005C083E003C083E001C083E09F5F02C031
S113099090E081E0933008F477CF0895833008F035
S11309A06FC0813081F120F0823009F457C06AC0F1
S11309B085B78C7F85BF613071F028F0623099F083
S11309C06330C9F061C085B78E7F85BF85B78D7FE1
S11309D085BF81E0089585B7816085BF85B78D7F28
S11309E085BF81E0089585B78E7F85BF85B7826016
S11309F085BF81E0089585B7816085BF85B7826032
S1130A0085BF81E0089585B7837F85BF613071F02C
S1130A1028F0623099F06330C9F038C085B78B7F15
S1130A2085BF85B7877F85BF81E0089585B78460DA
S1130A3085BF85B7877F85BF81E0089585B78B7FA4
S1130A4085BF85B7886085BF81E0089585B78460D8
S1130A5085BF85B7886085BF81E0089584B78F7BA3
S1130A6084BF623019F0633031F012C084B78F7BD9
S1130A7084BF81E0089584B7806484BF81E00895D1
S1130A8083E0089583E0089583E0089583E0089562
S1130A9083E008958330F0F4813061F018F08230FF
S1130AA089F01AC08BB78F7B8BBF8BB780648BBFE9
S1130AB081E008958BB78F778BBF8BB780688BBF2E
S1130AC081E008958BB78F7D8BBF8BB780628BBF1E
S1130AD081E0089583E0089581E008951F920F92C4
S1130AE00FB60F9211242F933F934F935F936F93FD
S1130AF07F938F939F93AF93BF93EF93FF93E09173
S1130B007700F0917800309729F0809171009091EE
S1130B1072000995FF91EF91BF91AF919F918F91D1
S1130B207F916F915F914F913F912F910F900FBEE5
S1130B300F901F9018951F920F920FB60F921124C9
S1130B402F933F934F935F936F937F938F939F93D1
S1130B50AF93BF93EF93FF93E0917900F0917A0004
S1130B60309729F080917300909174000995FF915A
S1130B70EF91BF91AF919F918F917F916F915F9111
S1130B804F913F912F910F900FBE0F901F9018958A
S1130B901F920F920FB60F9211242F933F934F93EE
S1130BA05F936F937F938F939F93AF93BF93EF93D1
S1130BB0FF93E0917B00F0917C00309729F08091C5
S1130BC07500909176000995FF91EF91BF91AF91D7
S1130BD09F918F917F916F915F914F913F912F9151
S1130BE00F900FBE0F901F9018958FB78F778FBF00
S1130BF08FB780688FBF80E00895EE0FFF1F0590C8
S1130C00F491E02D0994AEE0B0E0E9E0F6E00C9454
S1130C10C4080D891E8986E08C831A8309838FEFAB
S1130C209FE79E838D83AE01475E5F4F6F89788D0A
S1130C30CE0101960E942506EF81F885E00FF11F91
S1130C4010822E96E4E00C94E008ABE0B0E0EBE216
S1130C50F6E00C94B6086C017B018A01FC01178252
S1130C601682838181FFCCC1CE0101963C01F6013D
S1130C709381F70193FD859193FF81917F018823EF
S1130C8009F4BAC1853239F493FD859193FF8191BA
S1130C907F01853229F4B60190E00E941C08E7CF59
S1130CA0912C212C312CFFE1F315D8F08B3279F003
S1130CB038F4803279F08332A1F4232D20611DC0F1
S1130CC08D3261F0803369F4232D216016C0832DA9
S1130CD08260382EE32DE4603E2E2AC0F32DF860A6
S1130CE01DC037FC2DC020ED280F2A3040F08E3275
S1130CF0B9F436FC81C1232D2064322E19C036FE8E
S1130D0006C08AE0989E200D1124922E11C0EAE0BC
S1130D102E9E200D1124222EF32DF0623F2E08C0AA
S1130D208C3621F4832D8068382E02C0883641F435
S1130D30F70193FD859193FF81917F018111B3CFD9
S1130D40982F9F7D9554933028F40C5F1F4F9FE399
S1130D5099830DC0833631F0833771F0833509F000
S1130D6059C021C0F801808189830E5F1F4F8824F8
S1130D708394912C530113C02801F2E04F0E511CAF
S1130D80F801A080B18036FE03C0692D70E002C076
S1130D906FEF7FEFC5010E9411084C018201F32D12
S1130DA0FF773F2E16C0280122E0420E511CF801A5
S1130DB0A080B18036FE03C0692D70E002C06FEFE1
S1130DC07FEFC5010E9406084C01F32DF0683F2E09
S1130DD0820133FC1BC0822D90E088169906B0F482
S1130DE0B60180E290E00E941C082A94F4CFF50139
S1130DF037FC859137FE81915F01B60190E00E9436
S1130E001C0821102A9421E0821A9108811491046B
S1130E1071F7E8C0843611F0893641F5F80137FEE0
S1130E2007C060817181828193810C5F1F4F08C06C
S1130E3060817181072E000C880B990B0E5F1F4F88
S1130E40F32DFF763F2E97FF09C0909580957095FE
S1130E5061957F4F8F4F9F4FF0683F2E2AE030E01F
S1130E60A3010E945808882E861845C0853731F49E
S1130E70232D2F7EB22E2AE030E025C0932D997FBA
S1130E80B92E8F36C1F018F4883579F0B5C08037A3
S1130E9019F0883721F0B0C0E92FE061BE2EB4FE0E
S1130EA00DC0FB2DF460BF2E09C034FE0AC0292FEB
S1130EB02660B22E06C028E030E005C020E130E014
S1130EC002C020E132E0F801B7FE07C06081718101
S1130ED0828193810C5F1F4F06C06081718180E025
S1130EE090E00E5F1F4FA3010E945808882E8618B9
S1130EF0FB2DFF773F2E36FE0DC0232D2E7FA22E15
S1130F00891458F434FE0BC032FC09C0832D8E7E44
S1130F10A82E05C0B82CA32C03C0B82C01C0B92C32
S1130F20A4FE0FC0FE01E80DF11D8081803321F481
S1130F309A2D997EA92E09C0A2FE06C0B394B3943B
S1130F4004C08A2D867809F0B394A3FC11C0A0FED6
S1130F5006C0B21488F4280C922C9B180EC0B2144C
S1130F6060F4B60180E290E00E941C08B394F7CFCD
S1130F70B21418F42B1802C0982C212CA4FE10C013
S1130F80B60180E390E00E941C08A2FE17C0A1FCF9
S1130F9003C088E790E002C088E590E0B6010CC089
S1130FA08A2D867859F0A1FE02C08BE201C080E24E
S1130FB0A7FC8DE2B60190E00E941C08891438F465
S1130FC0B60180E390E00E941C089A94F7CF8A94BB
S1130FD0F301E80DF11D8081B60190E00E941C0828
S1130FE08110F5CF222009F442CEB60180E290E0D0
S1130FF00E941C082A94F6CFF6018681978102C0CC
S11310008FEF9FEF2B96E2E10C94D208FC01059040
S1131010615070400110D8F7809590958E0F9F1FF6
S11310200895FC016150704001900110D8F780953B
S113103090958E0F9F1F08950F931F93CF93DF9367
S1131040FB01238121FD03C08FEF9FEF2CC022FF02
S113105016C046815781248135814217530744F4D1
S1131060A081B1819D012F5F3F4F318320838C93F9
S1131070268137812F5F3F4F3783268314C08B012E
S1131080EC01FB010084F185E02D0995892BE1F643
S1131090D80116968D919C911797019617969C935B
S11310A08E931697CE01DF91CF911F910F910895E2
S11310B0FA01AA27283051F1203181F1E8946F9385
S11310C06E7F6E5F7F4F8F4F9F4FAF4FB1E03ED02B
S11310D0B4E03CD0670F781F891F9A1FA11D680FC9
S11310E0791F8A1F911DA11D6A0F711D811D911DFC
S11310F0A11D20D009F468943F912AE0269F112471
S11311003019305D3193DEF6CF010895462F4770D4
S1131110405D4193B3E00FD0C9F7F6CF462F4F702F
S1131120405D4A3318F0495D31FD4052419302D08D
S1131130A9F7EACFB4E0A695979587957795679533
S1131140BA95C9F700976105710508959B01AC0133
S11311500A2E06945795479537952795BA95C9F75A
S1131160620F731F841F951FA01D08952F923F9235
S11311704F925F926F927F928F929F92AF92BF92A3
S1131180CF92DF92EF92FF920F931F93CF93DF934F
S1131190CDB7DEB7CA1BDB0B0FB6F894DEBF0FBEAC
S11311A0CDBF09942A88398848885F846E847D84F9
S11311B08C849B84AA84B984C884DF80EE80FD80FB
S11311C00C811B81AA81B981CE0FD11D0FB6F89471
S11111D0DEBF0FBECDBFED010895F894FFCF32
S10F11DE00000301010002010025640070
S9030000FC
