S01200004C45445F4472697665722E7372656372
S11300000C942A000C943F000C943F000C943F0085
S11300100C943F000C943F000C943F000C943F0060
S11300200C943F000C943F000C943F000C943F0050
S11300300C943F000C943F000C943F000C943F0040
S11300400C943F000C943F000C943F000C943F0030
S11300500C943F0011241FBECFE5D8E0DEBFCDBF16
S113006010E0A0E6B0E0E6EFF5E002C005900D92E6
S1130070A638B107D9F70E94FE010C94F9020C943A
S11300800000843008F067C0683008F066C0423071
S113009008F065C08130E9F030F0823081F18330BE
S11300A009F443C05EC081E090E0062E02C0880FD0
S11300B0991F0A94E2F780952AB32823842F90E0AD
S11300C002C0880F991F6A95E2F7822B8ABB80E0F1
S11300D0089521E030E0062E02C0220F331F0A9457
S11300E0E2F7209587B32823842F90E002C0880F7D
S11300F0991F6A95E2F7822B87BB80E0089521E07F
S113010030E0062E02C0220F331F0A94E2F7209536
S113011084B32823842F90E002C0880F991F6A9526
S1130120E2F7822B84BB80E0089521E030E0062EC4
S113013002C0220F331F0A94E2F7209581B32823CB
S1130140842F90E002C0880F991F6A95E2F7822BF2
S113015081BB80E0089583E0089583E0089583E0FF
S1130160089580E00895843008F067C0683008F08E
S113017066C0423008F065C08130E9F030F082306A
S113018081F1833009F443C05EC081E090E0062E23
S113019002C0880F991F0A94E2F780952BB3282395
S11301A0842F90E002C0880F991F6A95E2F7822B92
S11301B08BBB80E0089521E030E0062E02C0220FC0
S11301C0331F0A94E2F7209588B32823842F90E004
S11301D002C0880F991F6A95E2F7822B88BB80E0E2
S11301E0089521E030E0062E02C0220F331F0A9446
S11301F0E2F7209585B32823842F90E002C0880F6E
S1130200991F6A95E2F7822B85BB80E0089521E06F
S113021030E0062E02C0220F331F0A94E2F7209525
S113022082B32823842F90E002C0880F991F6A9517
S1130230E2F7822B82BB80E0089583E0089583E097
S1130240089583E0089580E0089541155105E1F192
S11302508430E0F56830E0F5813091F028F08230A8
S1130260D9F0833029F136C089B390E002C0959566
S113027087956A95E2F78170FA01808380E008959A
S113028086B390E002C0959587956A95E2F78170F0
S1130290FA01808380E0089583B390E002C09595CD
S11302A087956A95E2F78170FA01808380E008956A
S11302B080B390E002C0959587956A95E2F78170C6
S11302C0FA01808380E0089582E0089580E0089533
S11302D080E0089580E00895EF92FF921F93CF93FA
S11302E0DF930097E9F582E041C0C12FD0E0CC0F45
S11302F0DD1FCC0FDD1FCE0DDF1D41E0698188813C
S11303000E9441009A819C3089F48B818A3031F4B7
S1130310698140E088810E94B30020C08B30C9F419
S1130320698141E088810E94B30018C09D3099F42E
S11303308B818A3031F4698141E088810E94B30065
S11303400DC08B3051F4698140E088810E94B30074
S113035005C083E003C083E001C083E01F5F03C0E6
S11303607C0110E081E0183008F4BFCFDF91CF9119
S11303701F91FF90EF900895CF93DF930097B9F00A
S1130380EC0141E0698188810E9441008A818C30BE
S113039031F4698140E088810E94B3000BC08D3044
S11303A041F4698141E088810E94B30003C082E086
S11303B001C083E0DF91CF910895CF93DF9300973D
S11303C0B9F0EC0141E0698188810E9441008A8191
S11303D08C3031F4698141E088810E94B3000BC004
S11303E08D3041F4698140E088810E94B30003C0EC
S11303F082E001C083E0DF91CF910895CF93DF9332
S113040000D0CDB7DEB780E890E00E94C00280E65D
S113041090E00E946C01BE016F5F7F4F80E890E026
S11304200E94E902BE016E5F7F4F83E890E00E9464
S1130430E9028981813031F58A81813019F50AC058
S113044024E01202C0011124805A9F4F0E94DD0152
S11304501F5F01C010E018309CF30EC0BE016F5F37
S11304607F4F80E890E00E94E902BE016E5F7F4FFB
S113047083E890E00E94E9028981813019F48A813D
S1130480813061F3898181112AC08A81813039F5F3
S113049010C024E01202C0011124805A9F4F0E9410
S11304A0BC018BE792E90197F1F700C000001F5FE0
S11304B001C010E018306CF317E00FC024E0120202
S11304C0C0011124805A9F4F0E94DD018BE792E9FD
S11304D00197F1F700C00000115011237CF78A81C5
S11304E0811199CF8981813009F095CF21C0E12E06
S11304F0012E000CFF08C701880F991F880F991F50
S1130500805A9F4F0E94BC0187E090E08E199F099A
S1130510880F991F880F991F805A9F4F0E94BC0112
S11305208BE792E90197F1F700C00000115001C078
S113053013E01123E4F610E020C0E12E012E000C9C
S1130540FF08C701880F991F880F991F805A9F4F72
S11305500E94DD0187E090E08E199F09880F991FA2
S1130560880F991F805A9F4F0E94DD018BE792E903
S11305700197F1F700C000001F5F1330F4F24BCF76
S1130580EF92FF921F93CF93DF930097B9F482E029
S11305901AC0C12FD0E0CE01880F991FC80FD91FF0
S11305A0CE0DDF1D698140E088810E9441004A81AF
S11305B0698188810E94B3001F5F03C07C0110E041
S11305C081E0123030F3DF91CF911F91FF90EF90D3
S11305D00895009751F06115710549F0AB01FC01D4
S11305E0618180810E942501089582E0089582E05E
S10905F00895F894FFCF0A
S11305F602000D0B02010D0B02020D0B02030D0B83
S113060602040D0B02050D0B02060D0B02070D0B62
S1090616000001000101D7
S9030000FC
