:100000000C942A000C943F000C943F000C943F0089
:100010000C943F000C943F000C943F000C943F0064
:100020000C943F000C943F000C943F000C943F0054
:100030000C943F000C943F000C943F000C943F0044
:100040000C943F000C943F000C943F000C943F0034
:100050000C943F0011241FBECFE5D8E0DEBFCDBF1A
:1000600010E0A0E6B0E0EEE0F1E002C005900D92F5
:10007000AA36B107D9F70E9441000C9485000C9470
:100080000000CF93DF93CDB7DEB72A970FB6F89471
:10009000DEBF0FBECDBF8AE0E0E6F0E0DE011196E4
:1000A00001900D928A95E1F78AB38C7F8ABB8BB35E
:1000B00083608BBB8FEF87BB80E0C89912C08F5FD6
:1000C0008A3058F4E1E0F0E0EC0FFD1FE80FF11D7D
:1000D00087FDFA95908198BB01C089E0C89BFECF4F
:1000E000ECCFC999EACF81508A3058F4E1E0F0E0D2
:1000F000EC0FFD1FE80FF11D87FDFA95908198BB6D
:0E01000001C080E0C99BFECFD8CFF894FFCF9E
:0A010E003F065B4F666D7D077F6FB3
:00000001FF
