S01200004C43445F4472697665722E7372656374
S11300000C942A000C9447000C9447000C9447006D
S11300100C9447000C9447000C9447000C94470040
S11300200C9447000C9447000C9447000C94470030
S11300300C9447000C9447000C9447000C94470020
S11300400C9447000C9447000C9447000C94470010
S11300500C94470011241FBECFE5D8E0DEBFCDBF0E
S113006010E0A0E6B0E0E8EBF5E002C005900D92E8
S1130070AC37B107D9F720E0ACE7B0E001C01D927E
S1130080AD37B207E1F70E94B7020C94DA020C9480
S11300900000843008F067C0683008F066C0423061
S11300A008F065C08130E9F030F0823081F18330AE
S11300B009F443C05EC081E090E0062E02C0880FC0
S11300C0991F0A94E2F780952AB32823842F90E09D
S11300D002C0880F991F6A95E2F7822B8ABB80E0E1
S11300E0089521E030E0062E02C0220F331F0A9447
S11300F0E2F7209587B32823842F90E002C0880F6D
S1130100991F6A95E2F7822B87BB80E0089521E06E
S113011030E0062E02C0220F331F0A94E2F7209526
S113012084B32823842F90E002C0880F991F6A9516
S1130130E2F7822B84BB80E0089521E030E0062EB4
S113014002C0220F331F0A94E2F7209581B32823BB
S1130150842F90E002C0880F991F6A95E2F7822BE2
S113016081BB80E0089583E0089583E0089583E0EF
S1130170089580E00895843008F067C0683008F07E
S113018066C0423008F065C08130E9F030F082305A
S113019081F1833009F443C05EC081E090E0062E13
S11301A002C0880F991F0A94E2F780952BB3282385
S11301B0842F90E002C0880F991F6A95E2F7822B82
S11301C08BBB80E0089521E030E0062E02C0220FB0
S11301D0331F0A94E2F7209588B32823842F90E0F4
S11301E002C0880F991F6A95E2F7822B88BB80E0D2
S11301F0089521E030E0062E02C0220F331F0A9436
S1130200E2F7209585B32823842F90E002C0880F5D
S1130210991F6A95E2F7822B85BB80E0089521E05F
S113022030E0062E02C0220F331F0A94E2F7209515
S113023082B32823842F90E002C0880F991F6A9507
S1130240E2F7822B82BB80E0089583E0089583E087
S1130250089583E0089580E0089540E062E080E03E
S11302600E94BB0083EC99E00197F1F700C0000005
S113027041E062E080E00E94BB000895CF93DF93E9
S1130280C82F40E061E080E00E94BB0081116EC095
S113029041E062E00E94BB00811168C0DC2FD07F86
S11302A04D2F441F4427441F67E081E00E94BB0098
S11302B081115CC0D6FB442740F966E081E00E94CE
S11302C0BB00811153C0D5FB442740F965E081E0B0
S11302D00E94BB0081114AC0D4FB442740F964E06A
S11302E081E00E94BB00811141C00E942D0189EF71
S11302F090E00197F1F700C00000C295C07F4C2F39
S1130300441F4427441F67E081E00E94BB00811121
S11303102DC0C6FB442740F966E081E00E94BB0083
S1130320811124C0C5FB442740F965E081E00E94A7
S1130330BB0081111BC0C4FB442740F964E081E089
S11303400E94BB00811112C089EF90E00197F1F780
S113035000C0000040E062E080E00E94BB0089EF42
S113036090E00197F1F700C0000080E0DF91CF91A9
S11303700895CF93C82F40E060E080E00E94BB0066
S1130380811103C08C2F0E943E01CF91089541E05A
S113039060E080E00E944900811161C041E061E0B9
S11303A00E94490081115BC041E062E00E94490063
S11303B0811155C041E067E081E00E94490081114C
S11303C04EC041E066E081E00E944900811147C0CF
S11303D041E065E081E00E944900811140C041E0B4
S11303E064E081E00E944900811139C08DE292E20B
S11303F00197F1F700C0000083E30E94B90182E392
S11304000E94B90188E20E94B901811128C089EFD4
S113041090E00197F1F700C000008FE00E94B9015D
S113042081111DC089EF90E00197F1F700C0000031
S113043081E00E94B901811112C083EF91E001971C
S1130440F1F700C0000086E00E94B901811107C0E5
S113045089EF90E00197F1F700C0000080E0089573
S1130460CF93DF93603148F5C62F813089F4D0E80B
S1130470D60F40E060E080E00E94BB00811103C021
S11304808D2F0E943E0181111BC0C0937C0018C0B7
S11304908230A9F4D0ECD60F40E060E080E00E9406
S11304A0BB00811103C08D2F0E943E01811108C041
S11304B060E16C0F60937C0003C080E001C080E0C9
S11304C0DF91CF91089580917C00803151F460E0F8
S11304D082E00E94300280917C008F5F80937C00D8
S11304E00895803289F440E060E080E00E94BB001F
S11304F0811103C081E00E943E0160E081E00E941E
S1130500300210927C0008958F5F80937C000895E0
S1130510CF93C82F0E94630241E060E080E00E9414
S1130520BB00811103C08C2F0E943E01CF9108951E
S113053040E060E080E00E94BB00811103C081E0E4
S11305400E943E0110927C000895CF93DF93EC014A
S1130550892B39F482E008C00E948802811104C00A
S1130560219688818111F8CFDF91CF9108950E945F
S1130570C70181111EC080E690E00E94A5022FEB06
S113058087E299E0215080409040E1F700C00000EC
S11305900E9498028FE690E00E94A5022FEB87E26A
S11305A099E0215080409040E1F700C000000E9493
S10B05B09802FFCFF894FFCF7D
S11305B84D6F7374616661204564726565730043A9
S10F05C841542052656C6F61646564004E
S9030000FC
