S01200004C43445F4472697665722E7372656374
S11300000C942A000C9447000C9447000C9447006D
S11300100C9447000C9447000C9447000C94470040
S11300200C9447000C9447000C9447000C94470030
S11300300C9447000C9447000C9447000C94470020
S11300400C9447000C9447000C9447000C94470010
S11300500C94470011241FBECFE5D8E0DEBFCDBF0E
S113006010E0A0E6B0E0ECE8F5E002C005900D92E7
S1130070AC37B107D9F720E0ACE7B0E001C01D927E
S1130080AD37B207E1F70E94A1020C94C4020C94AC
S11300900000843008F067C0683008F066C0423061
S11300A008F065C08130E9F030F0823081F18330AE
S11300B009F443C05EC081E090E0062E02C0880FC0
S11300C0991F0A94E2F780952AB32823842F90E09D
S11300D002C0880F991F6A95E2F7822B8ABB80E0E1
S11300E0089521E030E0062E02C0220F331F0A9447
S11300F0E2F7209587B32823842F90E002C0880F6D
S1130100991F6A95E2F7822B87BB80E0089521E06E
S113011030E0062E02C0220F331F0A94E2F7209526
S113012084B32823842F90E002C0880F991F6A9516
S1130130E2F7822B84BB80E0089521E030E0062EB4
S113014002C0220F331F0A94E2F7209581B32823BB
S1130150842F90E002C0880F991F6A95E2F7822BE2
S113016081BB80E0089583E0089583E0089583E0EF
S1130170089580E00895843008F067C0683008F07E
S113018066C0423008F065C08130E9F030F082305A
S113019081F1833009F443C05EC081E090E0062E13
S11301A002C0880F991F0A94E2F780952BB3282385
S11301B0842F90E002C0880F991F6A95E2F7822B82
S11301C08BBB80E0089521E030E0062E02C0220FB0
S11301D0331F0A94E2F7209588B32823842F90E0F4
S11301E002C0880F991F6A95E2F7822B88BB80E0D2
S11301F0089521E030E0062E02C0220F331F0A9436
S1130200E2F7209585B32823842F90E002C0880F5D
S1130210991F6A95E2F7822B85BB80E0089521E05F
S113022030E0062E02C0220F331F0A94E2F7209515
S113023082B32823842F90E002C0880F991F6A9507
S1130240E2F7822B82BB80E0089583E0089583E087
S1130250089583E0089580E0089541E062E080E03D
S11302600E94BB0083EC99E00197F1F700C0000005
S113027040E062E080E00E94BB000895CF93C82F65
S113028040E061E080E00E94BB00811151C040E089
S113029062E00E94BB0081114BC04C2F441F4427D5
S11302A0441F67E081E00E94BB00811141C0C6FB8E
S11302B0442740F966E081E00E94BB00811138C008
S11302C0C5FB442740F965E081E00E94BB00811131
S11302D02FC0C4FB442740F964E081E00E94BB00C6
S11302E0811126C0C3FB442740F963E081E00E94EA
S11302F0BB0081111DC0C2FB442740F962E081E0CC
S11303000E94BB00811114C0C1FB442740F961E085
S113031081E00E94BB0081110BC04C2F417060E052
S113032081E00E94BB00811103C00E942D0180E086
S1130330CF910895CF93C82F40E060E080E00E9401
S1130340BB00811103C08C2F0E943E01CF91089500
S113035041E060E080E00E944900811177C041E003
S113036061E00E944900811171C041E062E00E9495
S1130370490081116BC041E067E081E00E944900BF
S1130380811164C041E066E081E00E94490081116E
S11303905DC041E065E081E00E944900811156C0E2
S11303A041E064E081E00E94490081114FC08DE288
S11303B092E20197F1F700C0000041E063E081E0C0
S11303C00E944900811142C041E062E081E00E9444
S11303D0490081113BC041E061E081E00E94490095
S11303E0811134C041E060E081E00E944900811144
S11303F02DC088E30E949A01811128C089EF90E002
S11304000197F1F700C000008FE00E949A0181116A
S11304101DC089EF90E00197F1F700C0000081E072
S11304200E949A01811112C083EF91E00197F1F7C4
S113043000C0000086E00E949A01811107C089EF84
S113044090E00197F1F700C0000080E00895CF9399
S11304506032F0F4813069F4C0E8C60F40E060E037
S113046080E00E94BB00811116C08C2F0E943E01C7
S113047012C0823079F4C0ECC60F40E060E080E046
S11304800E94BB00811107C08C2F0E943E0103C053
S113049080E001C080E0CF91089580917C0080319C
S11304A051F460E082E00E94270280917C008F5F1B
S11304B080937C000895803289F440E060E080E01D
S11304C00E94BB00811103C081E00E943E0160E0F4
S11304D081E00E94270210927C0008958F5F809330
S11304E07C000895CF93C82F0E944D0241E060E044
S11304F080E00E94BB00811103C08C2F0E943E014A
S1130500CF91089540E060E080E00E94BB0081113B
S113051003C081E00E943E0110927C000895CF93B5
S1130520DF93EC01892B39F482E008C00E94720247
S1130530811104C0219688818111F8CFDF91CF9178
S113054008950E94A80181111EC080E690E00E94D7
S11305508F022FEB87E299E0215080409040E1F731
S113056000C000000E9482028FE690E00E948F0289
S11305702FEB87E299E0215080409040E1F700C0E2
S10F058000000E948202FFCFF894FFCF1D
S113058C4D6F7374616661204564726565730043D5
S10F059C41542052656C6F61646564007A
S9030000FC
