S01200004C43445F4472697665722E7372656374
S11300000C942A000C9447000C9447000C9447006D
S11300100C9447000C9447000C9447000C94470040
S11300200C9447000C9447000C9447000C94470030
S11300300C9447000C9447000C9447000C94470020
S11300400C9447000C9447000C9447000C94470010
S11300500C94470011241FBECFE5D8E0DEBFCDBF0E
S113006010E0A0E6B0E0EAE9F5E002C005900D92E8
S1130070A037B107D9F720E0A0E7B0E001C01D9296
S1130080A137B207E1F70E94BB020C94CB020C9497
S11300900000843008F067C0683008F066C0423061
S11300A008F065C08130E9F030F0823081F18330AE
S11300B009F443C05EC081E090E0062E02C0880FC0
S11300C0991F0A94E2F780952AB32823842F90E09D
S11300D002C0880F991F6A95E2F7822B8ABB80E0E1
S11300E0089521E030E0062E02C0220F331F0A9447
S11300F0E2F7209587B32823842F90E002C0880F6D
S1130100991F6A95E2F7822B87BB80E0089521E06E
S113011030E0062E02C0220F331F0A94E2F7209526
S113012084B32823842F90E002C0880F991F6A9516
S1130130E2F7822B84BB80E0089521E030E0062EB4
S113014002C0220F331F0A94E2F7209581B32823BB
S1130150842F90E002C0880F991F6A95E2F7822BE2
S113016081BB80E0089583E0089583E0089583E0EF
S1130170089580E00895843008F067C0683008F07E
S113018066C0423008F065C08130E9F030F082305A
S113019081F1833009F443C05EC081E090E0062E13
S11301A002C0880F991F0A94E2F780952BB3282385
S11301B0842F90E002C0880F991F6A95E2F7822B82
S11301C08BBB80E0089521E030E0062E02C0220FB0
S11301D0331F0A94E2F7209588B32823842F90E0F4
S11301E002C0880F991F6A95E2F7822B88BB80E0D2
S11301F0089521E030E0062E02C0220F331F0A9436
S1130200E2F7209585B32823842F90E002C0880F5D
S1130210991F6A95E2F7822B85BB80E0089521E05F
S113022030E0062E02C0220F331F0A94E2F7209515
S113023082B32823842F90E002C0880F991F6A9507
S1130240E2F7822B82BB80E0089583E0089583E087
S1130250089583E0089580E0089541155105E1F182
S11302608430E0F56830E0F5813091F028F0823098
S1130270D9F0833029F136C089B390E002C0959556
S113028087956A95E2F78170FA01808380E008958A
S113029086B390E002C0959587956A95E2F78170E0
S11302A0FA01808380E0089583B390E002C09595BD
S11302B087956A95E2F78170FA01808380E008955A
S11302C080B390E002C0959587956A95E2F78170B6
S11302D0FA01808380E0089582E0089580E0089523
S11302E080E0089580E0089541E062E080E00E94AB
S11302F0BB0083EC99E00197F1F700C0000040E0F7
S113030062E080E00E94BB000895CF936031D0F496
S1130310813059F4C0E8C60F40E060E080E00E94FC
S1130320BB008C2F0E94CA0110C0823069F4C0EC5B
S1130330C60F40E060E080E00E94BB008C2F0E946A
S1130340CA0103C081E001C081E0CF91089580918A
S11303507000803151F460E082E00E948501809158
S113036070008F5F809370000895803279F440E0CC
S113037060E080E00E94BB0081E00E94CA0160E06E
S113038081E00E9485011092700008958F5F809330
S1130390700008951F93CF93DF931F92CDB7DEB7FC
S11303A0182F198240E061E080E00E94BB0040E029
S11303B062E080E00E94BB00AE014F5F5F4F60E0EF
S11303C080E00E942D018981813011F40E94A701EF
S11303D0412F441F4427441F67E081E00E94BB0073
S11303E016FB442740F966E081E00E94BB0015FB40
S11303F0442740F965E081E00E94BB0014FB4427D8
S113040040F964E081E00E94BB0013FB442740F9FB
S113041063E081E00E94BB0012FB442740F962E0E4
S113042081E00E94BB0011FB442740F961E081E0B8
S11304300E94BB00412F417060E081E00E94BB003C
S1130440182F0E947401812F0F90DF91CF911F917B
S1130450089541E060E080E00E94490041E061E0ED
S113046080E00E94490041E062E080E00E9449008F
S113047041E067E081E00E94490041E066E081E0FC
S11304800E94490041E065E081E00E94490041E0AA
S113049064E081E00E9449008DE292E20197F1F765
S11304A000C0000041E063E081E00E94490041E0B7
S11304B062E081E00E94490041E061E081E00E9445
S11304C0490041E060E081E00E94490040E060E0D2
S11304D080E00E94BB0088E30E94CA01E9EFF0E0DB
S11304E03197F1F700C0000040E060E080E00E9436
S11304F0BB008FE00E94CA0189EF90E00197F1F7F9
S113050000C0000040E060E080E00E94BB0081E0A9
S11305100E94CA01E3EFF1E03197F1F700C0000057
S113052040E060E080E00E94BB0086E00E94CA01D7
S1130530E9EFF0E03197F1F700C000000895CF93A0
S1130540C82F41E060E080E00E94BB008C2F0E9435
S1130550CA01CF910895CF93DF93EC01892B29F43D
S113056082E006C00E949F02219688818111FACF01
S1130570DF91CF9108950E94290280E690E00E94C5
S1130580AB0284E50E949F0284E50E949F0284E5F9
S10D05900E949F02FFCFF894FFCFF2
S113059A4D6F73746166612045647265657300000A
S9030000FC
