S00D000055534152542E7372656388
S11300000C942A000C949D010C94CA010C94F701E1
S11300100C9447000C9447000C9447000C94470040
S11300200C9447000C9447000C9447000C94470030
S11300300C9447000C9447000C9447000C94470020
S11300400C9447000C9447000C9447000C94470010
S11300500C94470011241FBECFE5D8E0DEBFCDBF0E
S113006010E0A0E6B0E0E4EDF4E002C005900D92EB
S1130070AC3CB107D9F720E0ACECB0E001C01D9274
S1130080A83DB207E1F70E9449000C9468020C9461
S11300900000CF93DF93CDB7DEB7A8970FB6F894DF
S11300A0DEBF0FBECDBF41E061E083E00E94B90036
S11300B040E060E083E00E94B90041E060E080E05D
S11300C00E94B90041E063E080E00E94B90040E092
S11300D060E080E00E942B0140E063E080E00E9449
S11300E02B010E94240280E690E00E94370282E7FE
S11300F090E00E94370282E890E00E943702CE012D
S113010001960E944402CE0101960E94370289EBB7
S113011090E00E94370266E970E0CE0101960E94E9
S11301205F02892B51F48CE990E00E94370241E090
S113013060E080E00E942B01DECF68EA70E0CE012F
S113014001960E945F02892B51F48FEA90E00E948D
S1130150370240E060E080E00E942B01CCCF8CEBC2
S113016090E00E94370241E063E080E00E942B01AE
S1130170C2CF843008F067C0683008F066C04230EF
S113018008F065C08130E9F030F0823081F18330CD
S113019009F443C05EC081E090E0062E02C0880FDF
S11301A0991F0A94E2F780952AB32823842F90E0BC
S11301B002C0880F991F6A95E2F7822B8ABB80E000
S11301C0089521E030E0062E02C0220F331F0A9466
S11301D0E2F7209587B32823842F90E002C0880F8C
S11301E0991F6A95E2F7822B87BB80E0089521E08E
S11301F030E0062E02C0220F331F0A94E2F7209546
S113020084B32823842F90E002C0880F991F6A9535
S1130210E2F7822B84BB80E0089521E030E0062ED3
S113022002C0220F331F0A94E2F7209581B32823DA
S1130230842F90E002C0880F991F6A95E2F7822B01
S113024081BB80E0089583E0089583E0089583E00E
S1130250089580E00895843008F067C0683008F09D
S113026066C0423008F065C08130E9F030F0823079
S113027081F1833009F443C05EC081E090E0062E32
S113028002C0880F991F0A94E2F780952BB32823A4
S1130290842F90E002C0880F991F6A95E2F7822BA1
S11302A08BBB80E0089521E030E0062E02C0220FCF
S11302B0331F0A94E2F7209588B32823842F90E013
S11302C002C0880F991F6A95E2F7822B88BB80E0F1
S11302D0089521E030E0062E02C0220F331F0A9455
S11302E0E2F7209585B32823842F90E002C0880F7D
S11302F0991F6A95E2F7822B85BB80E0089521E07F
S113030030E0062E02C0220F331F0A94E2F7209534
S113031082B32823842F90E002C0880F991F6A9526
S1130320E2F7822B82BB80E0089583E0089583E0A6
S1130330089583E0089580E008951F920F920FB608
S11303400F9211242F933F934F935F936F937F9357
S11303508F939F93AF93BF93EF93FF93E091D2005A
S1130360F091D300309729F08091CC009091CD008A
S11303700995FF91EF91BF91AF919F918F917F91DB
S11303806F915F914F913F912F910F900FBE0F90FE
S11303901F9018951F920F920FB60F9211242F934E
S11303A03F934F935F936F937F938F939F93AF93F9
S11303B0BF93EF93FF93E091D400F091D500309771
S11303C029F08091CE009091CF000995FF91EF9193
S11303D0BF91AF919F918F917F916F915F914F9159
S11303E03F912F910F900FBE0F901F9018951F9261
S11303F00F920FB60F9211242F933F934F935F9355
S11304006F937F938F939F93AF93BF93EF93FF93D8
S1130410E091D600F091D700309729F08091D00078
S11304209091D1000995FF91EF91BF91AF919F9168
S11304308F917F916F915F914F913F912F910F9089
S11304400FBE0F901F9018958BB18D7F8BB98AB119
S113045088608AB98AB180618AB98AB18B7F8AB986
S113046086E880BD83E389B910BC80E00895FC016F
S1130470892B31F482E008955D9BFECF8CB93196CF
S113048080818111F9CF0895AC01892BB1F05F9B74
S1130490FECF3CB120E081E05F9BFECF9CB13913DD
S11304A005C0FA01E20FF11D10820895FA01E20F6E
S11304B0F11D908380E02F5FEFCF82E00895FB0170
S11304C0DC018D91019080190110D9F3990B0895E5
S10704D0F894FFCFCA
S11304D457656C636F6D65204D6F73746166610D50
S11304E40A0041726520796F752052656164790D43
S11304F40A00456E74657220796F75722063686FA3
S11305046963653A20006C65646F6E004C65642011
S11305146973204F4E0D0A006C65646F6666004C67
S11305246564206973204F46460D0A0057726F6E46
S10F0534672043686F6963650D0A0000CE
S9030000FC
