:100000000C942A000C943F000C943F000C943F0089
:100010000C943F000C943F000C943F000C943F0064
:100020000C943F000C943F000C943F000C943F0054
:100030000C943F000C943F000C943F000C943F0044
:100040000C943F000C943F000C943F000C943F0034
:100050000C943F0011241FBECFE5D8E0DEBFCDBF1A
:1000600010E0A0E6B0E0E8E6F1E002C005900D92F5
:10007000AA36B107D9F70E9441000C94B2000C9443
:100080000000CF93DF93CDB7DEB72A970FB6F89471
:10009000DEBF0FBECDBF8AE0E0E6F0E0DE011196E4
:1000A00001900D928A95E1F78FEF8ABB87BB84B3ED
:1000B0008C7F84BB85B3836085BB89818BBB8E813C
:1000C00088BB22E3989926C02F5F8DEC289F812D55
:1000D0001124982F969596959695990F392F330F51
:1000E000330F930F322F391B869586958695E1E065
:1000F000F0E0EC0FFD1FE30FF11D90819BBBE1E0F1
:10010000F0E0EC0FFD1FE80FF11D808188BB989B8C
:10011000FECFD8CF9999D6CF21508DEC289F812D35
:100120001124982F969596959695990F392F330F00
:10013000330F930F322F391B869586958695E1E014
:10014000F0E0EC0FFD1FE30FF11D90819BBBE1E0A0
:10015000F0E0EC0FFD1FE80FF11D808188BB999B3B
:08016000FECFB0CFF894FFCFF1
:0A0168003F065B4F666D7D077F6F59
:00000001FF
