S00E000054696D6572302E73726563E5
S11300000C942A000C946F010C949C010C94C9016B
S11300100C9447000C9447000C9447000C94470040
S11300200C9447000C9447000C948E020C943202FA
S11300300C9447000C9447000C9447000C94470020
S11300400C945E000C9447000C9447000C944700F9
S11300500C94470011241FBECFE5D8E0DEBFCDBF0E
S113006010E0A0E6B0E0E8EDF7E002C005900D92E4
S1130070A036B107D9F720E0A0E6B0E001C01D9298
S1130080A538B207E1F70E9449000C94EA030C94E6
S1130090000041E062E080E00E948B0040E062E00A
S11300A080E00E94FD000E94F60141E063E081E0EF
S11300B00E948B0080E50E941602FFCF1F920F92D0
S11300C00FB60F9211242F933F934F935F936F9327
S11300D07F938F939F93AF93BF93EF93FF93E0919D
S11300E06200F0916300309729F080916000909154
S11300F061000995FF91EF91BF91AF919F918F910D
S11301007F916F915F914F913F912F910F900FBE0F
S11301100F901F901895843008F067C0683008F07D
S113012066C0423008F065C08130E9F030F08230BA
S113013081F1833009F443C05EC081E090E0062E73
S113014002C0880F991F0A94E2F780952AB32823E6
S1130150842F90E002C0880F991F6A95E2F7822BE2
S11301608ABB80E0089521E030E0062E02C0220F11
S1130170331F0A94E2F7209587B32823842F90E055
S113018002C0880F991F6A95E2F7822B87BB80E033
S1130190089521E030E0062E02C0220F331F0A9496
S11301A0E2F7209584B32823842F90E002C0880FBF
S11301B0991F6A95E2F7822B84BB80E0089521E0C1
S11301C030E0062E02C0220F331F0A94E2F7209576
S11301D081B32823842F90E002C0880F991F6A9569
S11301E0E2F7822B81BB80E0089583E0089583E0E9
S11301F0089583E0089580E00895843008F067C08E
S1130200683008F066C0423008F065C08130E9F01B
S113021030F0823081F1833009F443C05EC081E064
S113022090E0062E02C0880F991F0A94E2F7809589
S11302302BB32823842F90E002C0880F991F6A955E
S1130240E2F7822B8BBB80E0089521E030E0062E9C
S113025002C0220F331F0A94E2F7209588B32823A3
S1130260842F90E002C0880F991F6A95E2F7822BD1
S113027088BB80E0089521E030E0062E02C0220F02
S1130280331F0A94E2F7209585B32823842F90E046
S113029002C0880F991F6A95E2F7822B85BB80E024
S11302A0089521E030E0062E02C0220F331F0A9485
S11302B0E2F7209582B32823842F90E002C0880FB0
S11302C0991F6A95E2F7822B82BB80E0089583E050
S11302D0089583E0089583E0089580E008951F92CF
S11302E00F920FB60F9211242F933F934F935F9366
S11302F06F937F938F939F93AF93BF93EF93FF93EA
S1130300E0916A00F0916B00309729F080916400CD
S1130310909165000995FF91EF91BF91AF919F91E5
S11303208F917F916F915F914F913F912F910F909A
S11303300FBE0F901F9018951F920F920FB60F9239
S113034011242F933F934F935F936F937F938F93D6
S11303509F93AF93BF93EF93FF93E0916C00F09161
S11303606D00309729F0809166009091670009959F
S1130370FF91EF91BF91AF919F918F917F916F9179
S11303805F914F913F912F910F900FBE0F901F904F
S113039018951F920F920FB60F9211242F933F932B
S11303A04F935F936F937F938F939F93AF93BF9379
S11303B0EF93FF93E0916E00F0916F00309729F076
S11303C080916800909169000995FF91EF91BF9128
S11303D0AF919F918F917F916F915F914F913F91D9
S11303E02F910F900FBE0F901F90189583B7877BA6
S11303F083BF83B7806483BF83B7886083BF83B7B9
S1130400887F83BF83B7816083BF83B78D7F83BFBA
S113041083B7846083BF83B78F7C83BF83B78F7EAA
S113042083BF83B7806283BF80E0089590E0A0E03B
S1130430B0E06627782F892F9A2F0E945C0320E072
S113044030E048EC52E40E94BB0260937400709365
S1130450750080937600909377000E942D036CBF03
S113046080E008951F920F920FB60F9211242F93DC
S11304703F934F935F936F937F938F939F93AF9328
S1130480BF93EF93FF938091830090918400892B15
S1130490A1F18091700090917100A0917200B091CF
S11304A073000196A11DB11D80937000909371009B
S11304B0A0937200B093730040917800509179003A
S11304C060917A0070917B0084179507A607B7079F
S11304D0A1F480917C0082BFE0918300F0918400BC
S11304E08091810090918200099510927000109281
S11304F071001092720010927300FF91EF91BF91FE
S1130500AF919F918F917F916F915F914F913F91A7
S11305102F910F900FBE0F901F9018951F920F925E
S11305200FB60F9211242F933F934F935F936F93C2
S11305307F938F939F93AF93BF93EF93FF93E09138
S11305407F00F0918000309729F080917D00909198
S11305507E000995FF91EF91BF91AF919F918F918B
S11305607F916F915F914F913F912F910F900FBEAB
S11305700F901F9018950E94CF020C94B0030E9414
S1130580A90358F00E94A20340F029F45F3F29F028
S11305900C94990351110C94E4030C949F030E944E
S11305A0C10368F39923B1F3552391F3951B550BBC
S11305B0BB27AA2762177307840738F09F5F5F4F32
S11305C0220F331F441FAA1FA9F335D00E2E3AF071
S11305D0E0E832D091505040E695001CCAF72BD089
S11305E0FE2F29D0660F771F881FBB1F26173707DA
S11305F04807AB07B0E809F0BB0B802DBF01FF270C
S113060093585F4F3AF09E3F510578F00C9499034C
S11306100C94E4035F3FE4F3983ED4F38695779516
S11306206795B795F7959F5FC9F7880F911D9695C4
S1130630879597F90895E1E0660F771F881FBB1F20
S1130640621773078407BA0720F0621B730B840BCD
S1130650BA0BEE1F88F7E09508950E94C90388F04D
S11306609F5798F0B92F9927B751B0F0E1F0660F72
S1130670771F881F991F1AF0BA95C9F714C0B130B3
S113068091F00E94E303B1E008950C94E303672F13
S1130690782F8827B85F39F0B93FCCF386957795E2
S11306A06795B395D9F73EF49095809570956195CB
S11306B07F4F8F4F9F4F0895E89409C097FB3EF4F6
S11306C090958095709561957F4F8F4F9F4F99239B
S11306D0A9F0F92F96E9BB279395F6958795779519
S11306E06795B795F111F8CFFAF4BB0F11F460FFD9
S11306F01BC06F5F7F4F8F4F9F4F16C0882311F031
S113070096E911C0772321F09EE8872F762F05C044
S1130710662371F096E8862F70E060E02AF09A95DF
S1130720660F771F881FDAF7880F9695879597F9D4
S1130730089597F99F6780E870E060E008959FEF5F
S113074080EC089500240A94161617061806090664
S1130750089500240A941216130614060506089533
S1130760092E0394000C11F4882352F0BB0F40F4BB
S1130770BF2B11F460FF04C06F5F7F4F8F4F9F4FFB
S1130780089557FD9058440F551F59F05F3F71F07D
S11307904795880F97FB991F61F09F3F79F08795E4
S11307A00895121613061406551FF2CF4695F1DF6D
S11307B008C0161617061806991FF1CF86957105FD
S11307C0610508940895E894BB2766277727CB0131
S10B07D097F90895F894FFCF96
S9030000FC
