:100000000C942A000C9434000C9434000C943400AA
:100010000C9434000C9434000C9434000C94340090
:100020000C9434000C9434000C9434000C94340080
:100030000C9434000C9434000C9434000C94340070
:100040000C9434000C9434000C9434000C94340060
:100050000C94340011241FBECFE5D8E0DEBFCDBF25
:100060000E9436000C945B000C9400008AB38360FD
:100070008ABB87B3887F87BB88B3876088BB8BB315
:100080008C7F8BBBB09B07C0B19B05C0B29B03C0EC
:100090008BB38C7F8BBBB09903C08BB381608BBB60
:1000A000B19903C08BB382608BBBB299EBCF8BB39A
:0A00B00083608BBBE7CFF894FFCF0D
:00000001FF
