:100000000C942A000C9458020C9481020C94AA02BD
:100010000C9447000C9447000C9447000C94470044
:100020000C9447000C9447000C9447000C94470034
:100030000C9447000C9447000C9447000C94470024
:100040000C9447000C9447000C9447000C94470014
:100050000C94470011241FBECFE5D8E0DEBFCDBF12
:1000600010E0A0E6B0E0E2ECF5E002C005900D92F1
:10007000AA36B107D9F720E0AAE6B0E001C01D9288
:10008000A037B207E1F70E944E000C94DF020C94F7
:10009000000067E080E00E945501089540E062E0C2
:1000A00083E00E94710041E062E083E00E94E3008F
:1000B00041E067E080E00E94710080E690E00E94ED
:1000C000970160E089E490E00E944B0280E00E948A
:1000D00027020E94D70240E067E080E00E94E30030
:1000E000FFCF843008F067C0683008F066C0423047
:1000F00008F065C08130E9F030F0823081F1833062
:1001000009F443C05EC081E090E0062E02C0880F73
:10011000991F0A94E2F780952AB32823842F90E050
:1001200002C0880F991F6A95E2F7822B8ABB80E094
:10013000089521E030E0062E02C0220F331F0A94FA
:10014000E2F7209587B32823842F90E002C0880F20
:10015000991F6A95E2F7822B87BB80E0089521E022
:1001600030E0062E02C0220F331F0A94E2F72095DA
:1001700084B32823842F90E002C0880F991F6A95CA
:10018000E2F7822B84BB80E0089521E030E0062E68
:1001900002C0220F331F0A94E2F7209581B328236F
:1001A000842F90E002C0880F991F6A95E2F7822B96
:1001B00081BB80E0089583E0089583E0089583E0A3
:1001C000089580E00895843008F067C0683008F032
:1001D00066C0423008F065C08130E9F030F082300E
:1001E00081F1833009F443C05EC081E090E0062EC7
:1001F00002C0880F991F0A94E2F780952BB3282339
:10020000842F90E002C0880F991F6A95E2F7822B35
:100210008BBB80E0089521E030E0062E02C0220F63
:10022000331F0A94E2F7209588B32823842F90E0A7
:1002300002C0880F991F6A95E2F7822B88BB80E085
:10024000089521E030E0062E02C0220F331F0A94E9
:10025000E2F7209585B32823842F90E002C0880F11
:10026000991F6A95E2F7822B85BB80E0089521E013
:1002700030E0062E02C0220F331F0A94E2F72095C9
:1002800082B32823842F90E002C0880F991F6A95BB
:10029000E2F7822B82BB80E0089583E0089583E03B
:1002A000089583E0089580E008958430D0F56830A3
:1002B000D0F5813091F028F08230D9F0833029F1E7
:1002C00034C081E090E002C0880F991F6A95E2F780
:1002D0009BB389278BBB80E0089581E090E002C04A
:1002E000880F991F6A95E2F798B3892788BB80E049
:1002F000089581E090E002C0880F991F6A95E2F7A7
:1003000095B3892785BB80E0089581E090E002C025
:10031000880F991F6A95E2F792B3892782BB80E024
:10032000089583E0089583E0089580E00895AC0186
:10033000892B09F086C082E00895E92FF0E09F0143
:10034000220F331FE20FF31FE40FF51F208121302E
:1003500081F120F0223009F457C06AC021812111B7
:100360006EC025B72C7F25BF2281213069F028F08F
:10037000223089F02330B1F05DC025B72E7F25BF34
:1003800025B72D7F25BF5BC025B7216025BF25B7C9
:100390002D7F25BF54C025B72E7F25BF25B72260EE
:1003A00025BF4DC025B7216025BF25B7226025BFD9
:1003B00046C02181211143C025B7237F25BF22815B
:1003C000213069F028F0223089F02330B1F034C0B8
:1003D00025B72B7F25BF25B7277F25BF30C025B781
:1003E000246025BF25B7277F25BF29C025B72B7FD0
:1003F00025BF25B7286025BF22C025B7246025BFAB
:1004000025B7286025BF1BC02181211118C024B742
:100410002F7B24BF2281223019F0233029F00EC017
:1004200024B72F7B24BF0BC024B7206424BF07C090
:1004300083E005C083E003C083E001C083E09F5FE9
:1004400002C090E081E0933008F477CF08958330C4
:10045000F0F4813061F018F0823089F01AC08BB767
:100460008F7B8BBF8BB780648BBF81E008958BB788
:100470008F778BBF8BB780688BBF81E008958BB778
:100480008F7D8BBF8BB780628BBF81E0089583E047
:10049000089581E00895009751F0633040F4E62F0D
:1004A000F0E0EE0FFF1FE659FF4F91838083089520
:1004B0001F920F920FB60F9211242F933F934F93D9
:1004C0005F936F937F938F939F93AF93BF93EF93BC
:1004D000FF93E0916A00F0916B00309709F0099565
:1004E000FF91EF91BF91AF919F918F917F916F910C
:1004F0005F914F913F912F910F900FBE0F901F90E2
:1005000018951F920F920FB60F9211242F933F93BD
:100510004F935F936F937F938F939F93AF93BF930B
:10052000EF93FF93E0916C00F0916D00309709F02C
:100530000995FF91EF91BF91AF919F918F917F911D
:100540006F915F914F913F912F910F900FBE0F9040
:100550001F9018951F920F920FB60F9211242F9390
:100560003F934F935F936F937F938F939F93AF933B
:10057000BF93EF93FF9380916C0090916D00892B56
:1005800029F0E0916E00F0916F000995FF91EF91D5
:10059000BF91AF919F918F917F916F915F914F919B
:1005A0003F912F910F900FBE0F901F9018958FB70E
:1005B0008F778FBF8FB780688FBF80E00895F894E2
:0205C000FFCF6B
:0A05C2000000010101000201000029
:00000001FF
