S0130000455854495F4472697665722E737265630C
S11300000C942A000C9404040C9431040C945E04A3
S11300100C9447000C9447000C9447000C94470040
S11300200C9447000C9447000C9447000C94470030
S11300300C9447000C9447000C9447000C94470020
S11300400C9447000C9447000C9447000C94470010
S11300500C94470011241FBECFE5D8E0DEBFCDBF0E
S113006010E0A0E6B0E0EAE2F9E002C005900D92EB
S1130070A437B107D9F720E0A4E7B0E001C01D928E
S1130080A038B207E1F70E94E5010C9493040C94A4
S113009000004F925F926F927F928F929F92AF92E5
S11300A0BF92CF92DF92EF92FF920F931F9341E0A2
S11300B060E081E00E941302882E912CA12CB12CC7
S11300C041E061E081E00E941302C82ED12CCC0CE7
S11300D0DD1CCC0CDD1CCC0CDD1C0D2C000CEE0846
S11300E0FF08C828D928EA28FB2841E062E081E01B
S11300F00E94130220E4829FC00111242C01990F55
S113010066087708C428D528E628F72841E063E084
S113011081E00E941302482E512C542C4424550C87
S1130120052C000C660877084C285D286E287F286B
S113013041E064E081E00E941302C82ED12CDC2C43
S1130140CC24DD0CDD0CDD0CDD0C0D2C000CEE08DC
S1130150FF084601570184289528A628B72841E0BE
S113016065E081E00E941302082F10E01127069534
S113017017950027012E000C220B330B680179011F
S1130180C828D928EA28FB2841E066E081E00E94DB
S11301901302082F10E011270027012E000C220B58
S11301A0330B0C291D292E293F290CBF1BBD2ABD49
S11301B090E013C0B901A801092E04C07695679593
S11301C0579547950A94D2F747705527662777279E
S11301D0452B462B472B29F49D5F903258F380E042
S11301E001C081E01F910F91FF90EF90DF90CF90BD
S11301F0BF90AF909F908F907F906F905F904F9043
S113020008954F925F926F927F928F929F92AF92D6
S1130210BF92CF92DF92EF92FF92CF93DF938A3017
S113022008F0A9C0C82FD0E0C05ADF4F4881417000
S113023060E081E00E948502882E912CA12CB12CD3
S113024048814695417061E081E00E948502282F33
S113025030E0C901880F991F880F991F880F991FD3
S1130260092E000CAA0BBB0B882A992AAA2ABB2A9E
S1130270488142FB442740F962E081E00E94850204
S113028020E4829FC00111242C01990F660877088D
S1130290482859286A287B28488143FB442740F989
S11302A063E081E00E948502C82ED12CDC2CCC2492
S11302B0DD0C0D2C000CEE08FF08460157018428C4
S11302C09528A628B72848814295417064E081E0CA
S11302D00E948502C82ED12CDC2CCC24DD0CDD0C34
S11302E0DD0CDD0C0D2C000CEE08FF08C828D92805
S11302F0EA28FB28488145FB442740F965E081E072
S11303000E94850290E09927869597958827092E63
S1130310000CAA0BBB0BC82AD92AEA2AFB2A48815B
S113032046FB442740F966E081E00E94850290E0A4
S113033099278827092E000CAA0BBB0BC82AD92A97
S1130340EA2AFB2A90E013C0B701A601092E04C0D3
S113035076956795579547950A94D2F74770552730
S113036066277727452B462B472B39F49D5F903220
S113037058F380E003C083E001C081E0DF91CF91B6
S1130380FF90EF90DF90CF90BF90AF909F908F90B1
S11303907F906F905F904F900895CF93DF93EC011F
S11303A0888190E00E9401012881822F90E00196CB
S11303B00A9714F0188202C02F5F288367E081E057
S11303C00E94F702DF91CF910895CF93DF931F929C
S11303D0CDB7DEB740E062E083E00E94130241E063
S11303E062E083E00E94850241E067E081E00E94D0
S11303F013020E9449008AE690E00E9439031982A0
S113040040E0BE016F5F7F4F8DEC91E00E94ED03F1
S113041080E00E94C9030E948B0440E067E081E011
S11304200E948502FFCF843008F067C0683008F06E
S113043066C0423008F065C08130E9F030F08230A7
S113044081F1833009F443C05EC081E090E0062E60
S113045002C0880F991F0A94E2F780952AB32823D3
S1130460842F90E002C0880F991F6A95E2F7822BCF
S11304708ABB80E0089521E030E0062E02C0220FFE
S1130480331F0A94E2F7209587B32823842F90E042
S113049002C0880F991F6A95E2F7822B87BB80E020
S11304A0089521E030E0062E02C0220F331F0A9483
S11304B0E2F7209584B32823842F90E002C0880FAC
S11304C0991F6A95E2F7822B84BB80E0089521E0AE
S11304D030E0062E02C0220F331F0A94E2F7209563
S11304E081B32823842F90E002C0880F991F6A9556
S11304F0E2F7822B81BB80E0089583E0089583E0D6
S1130500089583E0089580E00895843008F067C07A
S1130510683008F066C0423008F065C08130E9F008
S113052030F0823081F1833009F443C05EC081E051
S113053090E0062E02C0880F991F0A94E2F7809576
S11305402BB32823842F90E002C0880F991F6A954B
S1130550E2F7822B8BBB80E0089521E030E0062E89
S113056002C0220F331F0A94E2F7209588B3282390
S1130570842F90E002C0880F991F6A95E2F7822BBE
S113058088BB80E0089521E030E0062E02C0220FEF
S1130590331F0A94E2F7209585B32823842F90E033
S11305A002C0880F991F6A95E2F7822B85BB80E011
S11305B0089521E030E0062E02C0220F331F0A9472
S11305C0E2F7209582B32823842F90E002C0880F9D
S11305D0991F6A95E2F7822B82BB80E0089583E03D
S11305E0089583E0089583E0089580E008958430B9
S11305F0D0F56830D0F5813091F028F08230D9F010
S1130600833029F134C081E090E002C0880F991F43
S11306106A95E2F79BB389278BBB80E0089581E05C
S113062090E002C0880F991F6A95E2F798B3892772
S113063088BB80E0089581E090E002C0880F991F94
S11306406A95E2F795B3892785BB80E0089581E038
S113065090E002C0880F991F6A95E2F792B3892748
S113066082BB80E0089583E0089583E0089580E0EC
S11306700895AC01892B09F086C082E00895E92F22
S1130680F0E09F01220F331FE20FF31FE40FF51F69
S11306902081213081F120F0223009F457C06AC052
S11306A0218121116EC025B72C7F25BF22812130E5
S11306B069F028F0223089F02330B1F05DC025B70D
S11306C02E7F25BF25B72D7F25BF5BC025B72160B1
S11306D025BF25B72D7F25BF54C025B72E7F25BF45
S11306E025B7226025BF4DC025B7216025BF25B79A
S11306F0226025BF46C02181211143C025B7237F35
S113070025BF2281213069F028F0223089F023307E
S1130710B1F034C025B72B7F25BF25B7277F25BF70
S113072030C025B7246025BF25B7277F25BF29C042
S113073025B72B7F25BF25B7286025BF22C025B745
S1130740246025BF25B7286025BF1BC02181211146
S113075018C024B72F7B24BF2281223019F0233004
S113076029F00EC024B72F7B24BF0BC024B720640C
S113077024BF07C083E005C083E003C083E001C059
S113078083E09F5F02C090E081E0933008F477CF6C
S113079008958330F0F4813061F018F0823089F0EC
S11307A01AC08BB78F7B8BBF8BB780648BBF81E004
S11307B008958BB78F778BBF8BB780688BBF81E031
S11307C008958BB78F7D8BBF8BB780628BBF81E021
S11307D0089583E0089581E00895009789F04330F7
S11307E088F450E0440F551FFA01E658FF4F9183F7
S11307F08083FA01EC58FF4F7183608380E0089591
S113080082E0089583E008951F920F920FB60F922D
S113081011242F933F934F935F936F937F938F9301
S11308209F93AF93BF93EF93FF93E0917A00F0917E
S11308307B00309729F080917400909175000995A0
S1130840FF91EF91BF91AF919F918F917F916F91A4
S11308505F914F913F912F910F900FBE0F901F907A
S113086018951F920F920FB60F9211242F933F9356
S11308704F935F936F937F938F939F93AF93BF93A4
S1130880EF93FF93E0917C00F0917D00309729F085
S113089080917600909177000995FF91EF91BF9137
S11308A0AF919F918F917F916F915F914F913F9104
S11308B02F910F900FBE0F901F9018951F920F92BB
S11308C00FB60F9211242F933F934F935F936F931F
S11308D07F938F939F93AF93BF93EF93FF93E09195
S11308E07E00F0917F00309729F0809178009091FC
S11308F079000995FF91EF91BF91AF919F918F91ED
S11309007F916F915F914F913F912F910F900FBE07
S11309100F901F9018958FB78F778FBF8FB7806810
S10D09208FBF80E00895F894FFCF24
S113092A3F065B4F666D7D077F6F00000301010080
S107093A02010000B2
S9030000FC
