:100000000C942A000C943F000C943F000C943F0089
:100010000C943F000C943F000C943F000C943F0064
:100020000C943F000C943F000C943F000C943F0054
:100030000C943F000C943F000C943F000C943F0044
:100040000C943F000C943F000C943F000C943F0034
:100050000C943F0011241FBECFE5D8E0DEBFCDBF1A
:1000600010E0A0E6B0E0E6E8F5E002C005900D92F1
:10007000AA36B107D9F70E9425010C94C1020C944D
:100080000000843008F067C0683008F066C0423075
:1000900008F065C08130E9F030F0823081F18330C2
:1000A00009F443C05EC081E090E0062E02C0880FD4
:1000B000991F0A94E2F780952AB32823842F90E0B1
:1000C00002C0880F991F6A95E2F7822B8ABB80E0F5
:1000D000089521E030E0062E02C0220F331F0A945B
:1000E000E2F7209587B32823842F90E002C0880F81
:1000F000991F6A95E2F7822B87BB80E0089521E083
:1001000030E0062E02C0220F331F0A94E2F720953A
:1001100084B32823842F90E002C0880F991F6A952A
:10012000E2F7822B84BB80E0089521E030E0062EC8
:1001300002C0220F331F0A94E2F7209581B32823CF
:10014000842F90E002C0880F991F6A95E2F7822BF6
:1001500081BB80E0089583E0089583E0089583E003
:10016000089580E00895843008F067C0683008F092
:1001700066C0423008F065C08130E9F030F082306E
:1001800081F1833009F443C05EC081E090E0062E27
:1001900002C0880F991F0A94E2F780952BB3282399
:1001A000842F90E002C0880F991F6A95E2F7822B96
:1001B0008BBB80E0089521E030E0062E02C0220FC4
:1001C000331F0A94E2F7209588B32823842F90E008
:1001D00002C0880F991F6A95E2F7822B88BB80E0E6
:1001E000089521E030E0062E02C0220F331F0A944A
:1001F000E2F7209585B32823842F90E002C0880F72
:10020000991F6A95E2F7822B85BB80E0089521E073
:1002100030E0062E02C0220F331F0A94E2F7209529
:1002200082B32823842F90E002C0880F991F6A951B
:10023000E2F7822B82BB80E0089583E0089583E09B
:10024000089583E0089580E008950E943D01D82F2D
:10025000D111FECF0EC08C2F0E94F5012FE986E848
:1002600091E0215080409040E1F700C00000CF5F56
:1002700001C0C0E0CA3078F3EBCF4F925F926F922B
:100280007F928F929F92AF92BF92CF92DF92EF9226
:10029000FF920F931F9341E060E080E00E944100D5
:1002A000882E912CA12CB12C41E061E080E00E94CD
:1002B0004100C82ED12CCC0CDD1CCC0CDD1CCC0C90
:1002C000DD1C0D2C000CEE08FF08C828D928EA28F0
:1002D000FB2841E062E080E00E94410020E4829F30
:1002E000C00111242C01990F66087708C428D5286D
:1002F000E628F72841E060E081E00E944100482EB6
:10030000512C542C4424550C052C000C66087708FD
:100310004C285D286E287F2841E061E081E00E9442
:100320004100C82ED12CDC2CCC24DD0CDD0CDD0CE6
:10033000DD0C0D2C000CEE08FF0846015701842847
:100340009528A628B72841E062E081E00E9441009C
:10035000082F10E01127069517950027012E000C95
:10036000220B330B68017901C828D928EA28FB2819
:1003700041E063E081E00E944100082F10E0112776
:100380000027012E000C220B330B0C291D292E29CE
:100390003F290CBF1BBD2ABD90E013C0B901A801C5
:1003A000092E04C076956795579547950A94D2F71C
:1003B0004770552766277727452B462B472B29F46F
:1003C0009D5F903258F380E001C081E01F910F9152
:1003D000FF90EF90DF90CF90BF90AF909F908F9065
:1003E0007F906F905F904F9008954F925F926F92C1
:1003F0007F928F929F92AF92BF92CF92DF92EF92B5
:10040000FF92CF93DF938A3008F0A9C0C82FD0E0C5
:10041000C05ADF4F4881417060E080E00E94B30025
:10042000882E912CA12CB12C48814695417061E019
:1004300080E00E94B300282F30E0C901880F991F87
:10044000880F991F880F991F092E000CAA0BBB0B50
:10045000882A992AAA2ABB2A488142FB442740F9C4
:1004600062E080E00E94B30020E4829FC00111247A
:100470002C01990F66087708482859286A287B2894
:10048000488143FB442740F960E081E00E94B300CB
:10049000C82ED12CDC2CCC24DD0C0D2C000CEE084D
:1004A000FF084601570184289528A628B7284881C7
:1004B0004295417061E081E00E94B300C82ED12CCA
:1004C000DC2CCC24DD0CDD0CDD0CDD0C0D2C000C4B
:1004D000EE08FF08C828D928EA28FB28488145FBF0
:1004E000442740F962E081E00E94B30090E0992740
:1004F000869597958827092E000CAA0BBB0BC82A56
:10050000D92AEA2AFB2A488146FB442740F963E0BE
:1005100081E00E94B30090E099278827092E000C03
:10052000AA0BBB0BC82AD92AEA2AFB2A90E013C0DF
:10053000B701A601092E04C0769567955795479592
:100540000A94D2F74770552766277727452B462B05
:10055000472B39F49D5F903258F380E003C083E06D
:1005600001C081E0DF91CF91FF90EF90DF90CF90BD
:10057000BF90AF909F908F907F906F905F904F90C3
:060580000895F894FFCF7E
:0A0586003F065B4F666D7D077F6F37
:00000001FF
